{
  "contractName": "Greeting",
  "abi": [
    {
      "inputs": [],
      "name": "status",
      "outputs": [
        {
          "internalType": "string",
          "name": "",
          "type": "string"
        }
      ],
      "stateMutability": "view",
      "type": "function",
      "constant": true
    },
    {
      "inputs": [],
      "name": "updatedate",
      "outputs": [
        {
          "internalType": "uint256",
          "name": "",
          "type": "uint256"
        }
      ],
      "stateMutability": "view",
      "type": "function",
      "constant": true
    },
    {
      "inputs": [],
      "name": "getOracleData",
      "outputs": [
        {
          "internalType": "string",
          "name": "",
          "type": "string"
        }
      ],
      "stateMutability": "nonpayable",
      "type": "function"
    }
  ],
  "bytecode": "0x608060405234801561001057600080fd5b506104bf806100206000396000f3fe608060405234801561001057600080fd5b50600436106100415760003560e01c8063200d2ed214610046578063330deac4146100c95780636481c5e6146100e7575b600080fd5b61004e61016a565b6040518080602001828103825283818151815260200191508051906020019080838360005b8381101561008e578082015181840152602081019050610073565b50505050905090810190601f1680156100bb5780820380516001836020036101000a031916815260200191505b509250505060405180910390f35b6100d1610208565b6040518082815260200191505060405180910390f35b6100ef61020e565b6040518080602001828103825283818151815260200191508051906020019080838360005b8381101561012f578082015181840152602081019050610114565b50505050905090810190601f16801561015c5780820380516001836020036101000a031916815260200191505b509250505060405180910390f35b60008054600181600116156101000203166002900480601f0160208091040260200160405190810160405280929190818152602001828054600181600116156101000203166002900480156102005780601f106101d557610100808354040283529160200191610200565b820191906000526020600020905b8154815290600101906020018083116101e357829003601f168201915b505050505081565b60015481565b606060007fe0b3ed55241d8feffa6c3654deb863d704a87a158ebc0bba224c655c5b9b619260001b90506000730a7eac657bd7fff5f8740b0608b8ef1ea5170adf90506000819050606060008273ffffffffffffffffffffffffffffffffffffffff1663986e791a866040518263ffffffff1660e01b81526004018082815260200191505060006040518083038186803b1580156102ab57600080fd5b505afa1580156102bf573d6000803e3d6000fd5b505050506040513d6000823e3d601f19601f8201168201806040525060408110156102e957600080fd5b810190808051604051939291908464010000000082111561030957600080fd5b8382019150602082018581111561031f57600080fd5b825186600182028301116401000000008211171561033c57600080fd5b8083526020830192505050908051906020019080838360005b83811015610370578082015181840152602081019050610355565b50505050905090810190601f16801561039d5780820380516001836020036101000a031916815260200191505b50604052602001805190602001909291905050509150915081600090805190602001906103cb9291906103de565b5080600181905550819550505050505090565b828054600181600116156101000203166002900490600052602060002090601f016020900481019282610414576000855561045b565b82601f1061042d57805160ff191683800117855561045b565b8280016001018555821561045b579182015b8281111561045a57825182559160200191906001019061043f565b5b509050610468919061046c565b5090565b5b8082111561048557600081600090555060010161046d565b509056fea26469706673582212205e018382fd00e5a56099343594b453982dae257543e6f1f3247b370166a39bc164736f6c63430007040033",
  "immutableReferences": {},
  "source": "// SPDX-License-Identifier: MIT\npragma solidity >=0.4.22 <0.8.0;\n\nimport {Oracle} from  \"./Oracle.sol\";\n\n\ncontract Greeting {\n\n    string public status;\n    uint256 public updatedate;\n\n    function getOracleData() public returns (string memory) {\n        bytes32 oracleId = 0xe0b3ed55241d8feffa6c3654deb863d704a87a158ebc0bba224c655c5b9b6192;\n        address oracleAddress = 0x0a7eAc657bd7fFF5F8740B0608B8EF1eA5170aDf;\n        Oracle oracleContract = Oracle(oracleAddress);\n        (string memory value, uint256 date) = oracleContract.getString(\n            oracleId\n        );\n        status = value;\n        updatedate = date;\n        return value;\n    }\n}",
  "sourcePath": "/Users/user/Downloads/dapp-iexec/contracts/Greeting.sol",
  "compiler": {
    "name": "solc",
    "version": "0.7.4+commit.3f05b770.Emscripten.clang"
  },
  "schemaVersion": "3.4.3",
  "updatedAt": "2021-12-02T15:39:58.243Z",
  "networkType": "ethereum",
  "devdoc": {
    "kind": "dev",
    "methods": {},
    "version": 1
  },
  "userdoc": {
    "kind": "user",
    "methods": {},
    "version": 1
  }
}